{
  "contractName": "AgriBlock",
  "abi": [
    {
      "inputs": [],
      "stateMutability": "nonpayable",
      "type": "constructor"
    },
    {
      "inputs": [],
      "name": "cropCounter",
      "outputs": [
        {
          "internalType": "uint256",
          "name": "",
          "type": "uint256"
        }
      ],
      "stateMutability": "view",
      "type": "function",
      "constant": true
    },
    {
      "inputs": [],
      "name": "dCropCounter",
      "outputs": [
        {
          "internalType": "uint256",
          "name": "",
          "type": "uint256"
        }
      ],
      "stateMutability": "view",
      "type": "function",
      "constant": true
    },
    {
      "inputs": [],
      "name": "dealerProfitPercent",
      "outputs": [
        {
          "internalType": "uint256",
          "name": "",
          "type": "uint256"
        }
      ],
      "stateMutability": "view",
      "type": "function",
      "constant": true
    },
    {
      "inputs": [
        {
          "internalType": "address",
          "name": "",
          "type": "address"
        }
      ],
      "name": "dealers",
      "outputs": [
        {
          "internalType": "uint256",
          "name": "dealerId",
          "type": "uint256"
        },
        {
          "internalType": "string",
          "name": "dealerName",
          "type": "string"
        },
        {
          "internalType": "string",
          "name": "contact",
          "type": "string"
        },
        {
          "internalType": "address",
          "name": "addrs",
          "type": "address"
        },
        {
          "internalType": "string",
          "name": "email",
          "type": "string"
        },
        {
          "internalType": "bool",
          "name": "isRegistered",
          "type": "bool"
        }
      ],
      "stateMutability": "view",
      "type": "function",
      "constant": true
    },
    {
      "inputs": [
        {
          "internalType": "address",
          "name": "",
          "type": "address"
        }
      ],
      "name": "farmers",
      "outputs": [
        {
          "internalType": "uint256",
          "name": "farmerId",
          "type": "uint256"
        },
        {
          "internalType": "string",
          "name": "farmerName",
          "type": "string"
        },
        {
          "internalType": "string",
          "name": "contact",
          "type": "string"
        },
        {
          "internalType": "address",
          "name": "addrs",
          "type": "address"
        },
        {
          "internalType": "string",
          "name": "email",
          "type": "string"
        },
        {
          "internalType": "bool",
          "name": "isRegistered",
          "type": "bool"
        }
      ],
      "stateMutability": "view",
      "type": "function",
      "constant": true
    },
    {
      "inputs": [],
      "name": "sdCropCounter",
      "outputs": [
        {
          "internalType": "uint256",
          "name": "",
          "type": "uint256"
        }
      ],
      "stateMutability": "view",
      "type": "function",
      "constant": true
    },
    {
      "inputs": [],
      "name": "subdealerProfitPercent",
      "outputs": [
        {
          "internalType": "uint256",
          "name": "",
          "type": "uint256"
        }
      ],
      "stateMutability": "view",
      "type": "function",
      "constant": true
    },
    {
      "inputs": [
        {
          "internalType": "address",
          "name": "",
          "type": "address"
        }
      ],
      "name": "subdealers",
      "outputs": [
        {
          "internalType": "uint256",
          "name": "subDealerId",
          "type": "uint256"
        },
        {
          "internalType": "string",
          "name": "subdealerName",
          "type": "string"
        },
        {
          "internalType": "string",
          "name": "contact",
          "type": "string"
        },
        {
          "internalType": "string",
          "name": "email",
          "type": "string"
        },
        {
          "internalType": "address",
          "name": "addrs",
          "type": "address"
        },
        {
          "internalType": "bool",
          "name": "isRegistered",
          "type": "bool"
        }
      ],
      "stateMutability": "view",
      "type": "function",
      "constant": true
    },
    {
      "inputs": [
        {
          "internalType": "uint256",
          "name": "_jwari",
          "type": "uint256"
        },
        {
          "internalType": "uint256",
          "name": "_bajari",
          "type": "uint256"
        },
        {
          "internalType": "uint256",
          "name": "_wheat",
          "type": "uint256"
        },
        {
          "internalType": "uint256",
          "name": "_groundnut",
          "type": "uint256"
        }
      ],
      "name": "setPrice",
      "outputs": [],
      "stateMutability": "nonpayable",
      "type": "function"
    },
    {
      "inputs": [
        {
          "internalType": "uint256",
          "name": "_forDealer",
          "type": "uint256"
        },
        {
          "internalType": "uint256",
          "name": "_forSubdealer",
          "type": "uint256"
        }
      ],
      "name": "setProfitPercentage",
      "outputs": [],
      "stateMutability": "nonpayable",
      "type": "function"
    },
    {
      "inputs": [
        {
          "internalType": "string",
          "name": "_farmerName",
          "type": "string"
        },
        {
          "internalType": "string",
          "name": "_phoneNumber",
          "type": "string"
        },
        {
          "internalType": "string",
          "name": "_email",
          "type": "string"
        }
      ],
      "name": "registerFarmer",
      "outputs": [],
      "stateMutability": "nonpayable",
      "type": "function"
    },
    {
      "inputs": [
        {
          "internalType": "uint256",
          "name": "_cropType",
          "type": "uint256"
        },
        {
          "internalType": "uint256",
          "name": "_quantity",
          "type": "uint256"
        },
        {
          "internalType": "string",
          "name": "_location",
          "type": "string"
        }
      ],
      "name": "addCropDetails",
      "outputs": [],
      "stateMutability": "nonpayable",
      "type": "function"
    },
    {
      "inputs": [
        {
          "internalType": "string",
          "name": "_dealerName",
          "type": "string"
        },
        {
          "internalType": "string",
          "name": "_phoneNumber",
          "type": "string"
        },
        {
          "internalType": "string",
          "name": "_email",
          "type": "string"
        }
      ],
      "name": "registerDealer",
      "outputs": [],
      "stateMutability": "nonpayable",
      "type": "function"
    },
    {
      "inputs": [
        {
          "internalType": "uint256",
          "name": "_cropId",
          "type": "uint256"
        }
      ],
      "name": "seeCropsAtFarmer",
      "outputs": [
        {
          "components": [
            {
              "internalType": "uint256",
              "name": "cropId",
              "type": "uint256"
            },
            {
              "internalType": "string",
              "name": "cropName",
              "type": "string"
            },
            {
              "internalType": "uint256",
              "name": "farmer_quantity",
              "type": "uint256"
            },
            {
              "internalType": "string",
              "name": "location",
              "type": "string"
            },
            {
              "internalType": "address payable",
              "name": "farmerAddrs",
              "type": "address"
            },
            {
              "internalType": "address payable",
              "name": "dealerAddrs",
              "type": "address"
            },
            {
              "internalType": "address payable",
              "name": "subDealerAddrs",
              "type": "address"
            },
            {
              "internalType": "bool",
              "name": "isAdded",
              "type": "bool"
            },
            {
              "internalType": "uint256",
              "name": "cropPrice",
              "type": "uint256"
            },
            {
              "internalType": "string",
              "name": "farmerName",
              "type": "string"
            }
          ],
          "internalType": "struct AgriBlock.Crop",
          "name": "",
          "type": "tuple"
        }
      ],
      "stateMutability": "view",
      "type": "function",
      "constant": true
    },
    {
      "inputs": [
        {
          "internalType": "uint256",
          "name": "_cropId",
          "type": "uint256"
        },
        {
          "internalType": "uint256",
          "name": "_quantity",
          "type": "uint256"
        }
      ],
      "name": "buyFromFarmer",
      "outputs": [],
      "stateMutability": "payable",
      "type": "function",
      "payable": true
    },
    {
      "inputs": [
        {
          "internalType": "uint256",
          "name": "_cropId",
          "type": "uint256"
        },
        {
          "internalType": "uint256",
          "name": "_newPrice",
          "type": "uint256"
        }
      ],
      "name": "dealerSetPriceOfCropExpl",
      "outputs": [],
      "stateMutability": "nonpayable",
      "type": "function"
    },
    {
      "inputs": [
        {
          "internalType": "string",
          "name": "_subdealerName",
          "type": "string"
        },
        {
          "internalType": "string",
          "name": "_phoneNumber",
          "type": "string"
        },
        {
          "internalType": "string",
          "name": "_email",
          "type": "string"
        }
      ],
      "name": "registerSubdealer",
      "outputs": [],
      "stateMutability": "nonpayable",
      "type": "function"
    },
    {
      "inputs": [
        {
          "internalType": "uint256",
          "name": "_cropId",
          "type": "uint256"
        }
      ],
      "name": "seeCropsAtDealer",
      "outputs": [
        {
          "components": [
            {
              "internalType": "uint256",
              "name": "cropId",
              "type": "uint256"
            },
            {
              "internalType": "uint256",
              "name": "farmerCropId",
              "type": "uint256"
            },
            {
              "internalType": "string",
              "name": "cropName",
              "type": "string"
            },
            {
              "internalType": "uint256",
              "name": "farmer_quantity",
              "type": "uint256"
            },
            {
              "internalType": "uint256",
              "name": "dealer_quantity",
              "type": "uint256"
            },
            {
              "internalType": "string",
              "name": "location",
              "type": "string"
            },
            {
              "internalType": "address payable",
              "name": "farmerAddrs",
              "type": "address"
            },
            {
              "internalType": "address payable",
              "name": "dealerAddrs",
              "type": "address"
            },
            {
              "internalType": "uint256",
              "name": "cropPrice",
              "type": "uint256"
            },
            {
              "internalType": "string",
              "name": "dealerName",
              "type": "string"
            }
          ],
          "internalType": "struct AgriBlock.DCrop",
          "name": "",
          "type": "tuple"
        }
      ],
      "stateMutability": "view",
      "type": "function",
      "constant": true
    },
    {
      "inputs": [
        {
          "internalType": "uint256",
          "name": "_cropId",
          "type": "uint256"
        },
        {
          "internalType": "uint256",
          "name": "_quantity",
          "type": "uint256"
        }
      ],
      "name": "buyFromDealer",
      "outputs": [],
      "stateMutability": "payable",
      "type": "function",
      "payable": true
    },
    {
      "inputs": [
        {
          "internalType": "uint256",
          "name": "_cropId",
          "type": "uint256"
        },
        {
          "internalType": "uint256",
          "name": "_newPrice",
          "type": "uint256"
        }
      ],
      "name": "subdealerSetPriceOfCropExpl",
      "outputs": [],
      "stateMutability": "nonpayable",
      "type": "function"
    },
    {
      "inputs": [
        {
          "internalType": "uint256",
          "name": "_cropId",
          "type": "uint256"
        }
      ],
      "name": "seeCropsAtSubdealer",
      "outputs": [
        {
          "components": [
            {
              "internalType": "uint256",
              "name": "cropId",
              "type": "uint256"
            },
            {
              "internalType": "uint256",
              "name": "farmerCropId",
              "type": "uint256"
            },
            {
              "internalType": "uint256",
              "name": "dealerCropId",
              "type": "uint256"
            },
            {
              "internalType": "string",
              "name": "cropName",
              "type": "string"
            },
            {
              "internalType": "uint256",
              "name": "farmer_quantity",
              "type": "uint256"
            },
            {
              "internalType": "uint256",
              "name": "dealer_quantity",
              "type": "uint256"
            },
            {
              "internalType": "uint256",
              "name": "subdealer_quantity",
              "type": "uint256"
            },
            {
              "internalType": "string",
              "name": "location",
              "type": "string"
            },
            {
              "internalType": "address payable",
              "name": "farmerAddrs",
              "type": "address"
            },
            {
              "internalType": "address payable",
              "name": "dealerAddrs",
              "type": "address"
            },
            {
              "internalType": "address payable",
              "name": "subdealerAddrs",
              "type": "address"
            },
            {
              "internalType": "uint256",
              "name": "cropPrice",
              "type": "uint256"
            },
            {
              "internalType": "string",
              "name": "subdealerName",
              "type": "string"
            }
          ],
          "internalType": "struct AgriBlock.SDCrop",
          "name": "",
          "type": "tuple"
        }
      ],
      "stateMutability": "view",
      "type": "function",
      "constant": true
    },
    {
      "inputs": [
        {
          "internalType": "uint256",
          "name": "_cropId",
          "type": "uint256"
        },
        {
          "internalType": "uint256",
          "name": "_quantity",
          "type": "uint256"
        }
      ],
      "name": "buyCrop",
      "outputs": [],
      "stateMutability": "payable",
      "type": "function",
      "payable": true
    },
    {
      "inputs": [
        {
          "internalType": "uint256",
          "name": "_cropId",
          "type": "uint256"
        },
        {
          "internalType": "uint256",
          "name": "_quantity",
          "type": "uint256"
        }
      ],
      "name": "getPriceForQuantityInWei",
      "outputs": [
        {
          "internalType": "uint256",
          "name": "_quote",
          "type": "uint256"
        }
      ],
      "stateMutability": "view",
      "type": "function",
      "constant": true
    }
  ],
  "bytecode": "0x60806040526004600c5534801561001557600080fd5b50336000806101000a81548173ffffffffffffffffffffffffffffffffffffffff021916908373ffffffffffffffffffffffffffffffffffffffff160217905550615ac180620000666000396000f3fe6080604052600436106101405760003560e01c80638cb1ffe7116100b6578063d6a8e1461161006f578063d6a8e1461461045a578063dd80e57d14610483578063e1537d59146104c0578063e22f7696146104e9578063e8ff99a914610505578063f62fe1d51461053057610140565b80638cb1ffe71461034757806392e64086146103705780639385882a146103ad578063a086dd88146103d8578063b6701c56146103f4578063d176dd451461043157610140565b80632d45aafb116101085780632d45aafb1461022257806337a1df521461025f578063401b21681461028857806358901909146102ca57806365ae6018146102f35780636b8de3741461031e57610140565b8063030754c614610145578063150fd601146101705780631f71c4b41461019b57806328f81502146101b757806329a566d2146101f9575b600080fd5b34801561015157600080fd5b5061015a610572565b60405161016791906155cf565b60405180910390f35b34801561017c57600080fd5b50610185610578565b60405161019291906155cf565b60405180910390f35b6101b560048036038101906101b09190614458565b61057e565b005b3480156101c357600080fd5b506101de60048036038101906101d9919061436f565b610ddf565b6040516101f096959493929190615660565b60405180910390f35b34801561020557600080fd5b50610220600480360381019061021b9190614398565b610fe0565b005b34801561022e57600080fd5b5061024960048036038101906102449190614458565b611338565b60405161025691906155cf565b60405180910390f35b34801561026b57600080fd5b5061028660048036038101906102819190614458565b611568565b005b34801561029457600080fd5b506102af60048036038101906102aa919061436f565b611721565b6040516102c1969594939291906155ea565b60405180910390f35b3480156102d657600080fd5b506102f160048036038101906102ec9190614398565b611922565b005b3480156102ff57600080fd5b50610308611c7a565b60405161031591906155cf565b60405180910390f35b34801561032a57600080fd5b5061034560048036038101906103409190614398565b611c80565b005b34801561035357600080fd5b5061036e60048036038101906103699190614494565b611fd8565b005b34801561037c57600080fd5b506103976004803603810190610392919061442f565b612572565b6040516103a4919061558b565b60405180910390f35b3480156103b957600080fd5b506103c2612879565b6040516103cf91906155cf565b60405180910390f35b6103f260048036038101906103ed9190614458565b61287f565b005b34801561040057600080fd5b5061041b6004803603810190610416919061442f565b612c25565b60405161042891906155ad565b60405180910390f35b34801561043d57600080fd5b50610458600480360381019061045391906144fb565b612f96565b005b34801561046657600080fd5b50610481600480360381019061047c9190614458565b613149565b005b34801561048f57600080fd5b506104aa60048036038101906104a5919061442f565b613204565b6040516104b79190615569565b60405180910390f35b3480156104cc57600080fd5b506104e760048036038101906104e29190614458565b613568565b005b61050360048036038101906104fe9190614458565b613721565b005b34801561051157600080fd5b5061051a613e73565b60405161052791906155cf565b60405180910390f35b34801561053c57600080fd5b506105576004803603810190610552919061436f565b613e79565b604051610569969594939291906155ea565b60405180910390f35b60115481565b60125481565b60011515601560003373ffffffffffffffffffffffffffffffffffffffff1673ffffffffffffffffffffffffffffffffffffffff16815260200190815260200160002060040160149054906101000a900460ff16151514610614576040517f08c379a000000000000000000000000000000000000000000000000000000000815260040161060b90615389565b60405180910390fd5b600254821115610659576040517f08c379a0000000000000000000000000000000000000000000000000000000008152600401610650906153e9565b60405180910390fd5b80620f4240601860008581526020019081526020016000206008015461067f91906157eb565b61068991906157eb565b34146106ca576040517f08c379a00000000000000000000000000000000000000000000000000000000081526004016106c190615529565b60405180910390fd5b8060186000848152602001908152602001600020600401541015610723576040517f08c379a000000000000000000000000000000000000000000000000000000000815260040161071a906153c9565b60405180910390fd5b61072b61407a565b6003600081548092919061073e90615947565b919050555060035481600001818152505060186000848152602001908152602001600020600101548160200181815250508281604001818152505060186000848152602001908152602001600020600301548160800181815250508160186000858152602001908152602001600020600401546107bb9190615845565b8160a0018181525050818160c00181815250506018600084815260200190815260200160002060020180546107ef90615915565b80601f016020809104026020016040519081016040528092919081815260200182805461081b90615915565b80156108685780601f1061083d57610100808354040283529160200191610868565b820191906000526020600020905b81548152906001019060200180831161084b57829003601f168201915b5050505050816060018190525060186000848152602001908152602001600020600501805461089690615915565b80601f01602080910402602001604051908101604052809291908181526020018280546108c290615915565b801561090f5780601f106108e45761010080835404028352916020019161090f565b820191906000526020600020905b8154815290600101906020018083116108f257829003601f168201915b50505050508160e001819052506018600084815260200190815260200160002060060160009054906101000a900473ffffffffffffffffffffffffffffffffffffffff1681610100019073ffffffffffffffffffffffffffffffffffffffff16908173ffffffffffffffffffffffffffffffffffffffff16815250506018600084815260200190815260200160002060070160009054906101000a900473ffffffffffffffffffffffffffffffffffffffff1681610120019073ffffffffffffffffffffffffffffffffffffffff16908173ffffffffffffffffffffffffffffffffffffffff16815250503381610140019073ffffffffffffffffffffffffffffffffffffffff16908173ffffffffffffffffffffffffffffffffffffffff1681525050601560003373ffffffffffffffffffffffffffffffffffffffff1673ffffffffffffffffffffffffffffffffffffffff1681526020019081526020016000206001018054610a8090615915565b80601f0160208091040260200160405190810160405280929190818152602001828054610aac90615915565b8015610af95780601f10610ace57610100808354040283529160200191610af9565b820191906000526020600020905b815481529060010190602001808311610adc57829003601f168201915b5050505050816101800181905250601860008481526020019081526020016000206008015460646012546018600087815260200190815260200160002060080154610b4491906157eb565b610b4e91906157ba565b610b589190615764565b81610160018181525050816018600085815260200190815260200160002060040154610b849190615845565b60186000858152602001908152602001600020600401819055506018600084815260200190815260200160002060070160009054906101000a900473ffffffffffffffffffffffffffffffffffffffff1673ffffffffffffffffffffffffffffffffffffffff166108fc83620f42406018600088815260200190815260200160002060080154610c1491906157eb565b610c1e91906157eb565b9081150290604051600060405180830381858888f19350505050158015610c49573d6000803e3d6000fd5b50806019600060035481526020019081526020016000206000820151816000015560208201518160010155604082015181600201556060820151816003019080519060200190610c9a929190614124565b506080820151816004015560a0820151816005015560c0820151816006015560e0820151816007019080519060200190610cd5929190614124565b506101008201518160080160006101000a81548173ffffffffffffffffffffffffffffffffffffffff021916908373ffffffffffffffffffffffffffffffffffffffff1602179055506101208201518160090160006101000a81548173ffffffffffffffffffffffffffffffffffffffff021916908373ffffffffffffffffffffffffffffffffffffffff16021790555061014082015181600a0160006101000a81548173ffffffffffffffffffffffffffffffffffffffff021916908373ffffffffffffffffffffffffffffffffffffffff16021790555061016082015181600b015561018082015181600c019080519060200190610dd6929190614124565b50905050505050565b6015602052806000526040600020600091509050806000015490806001018054610e0890615915565b80601f0160208091040260200160405190810160405280929190818152602001828054610e3490615915565b8015610e815780601f10610e5657610100808354040283529160200191610e81565b820191906000526020600020905b815481529060010190602001808311610e6457829003601f168201915b505050505090806002018054610e9690615915565b80601f0160208091040260200160405190810160405280929190818152602001828054610ec290615915565b8015610f0f5780601f10610ee457610100808354040283529160200191610f0f565b820191906000526020600020905b815481529060010190602001808311610ef257829003601f168201915b505050505090806003018054610f2490615915565b80601f0160208091040260200160405190810160405280929190818152602001828054610f5090615915565b8015610f9d5780601f10610f7257610100808354040283529160200191610f9d565b820191906000526020600020905b815481529060010190602001808311610f8057829003601f168201915b5050505050908060040160009054906101000a900473ffffffffffffffffffffffffffffffffffffffff16908060040160149054906101000a900460ff16905086565b60008054906101000a900473ffffffffffffffffffffffffffffffffffffffff1673ffffffffffffffffffffffffffffffffffffffff163373ffffffffffffffffffffffffffffffffffffffff16141561106f576040517f08c379a000000000000000000000000000000000000000000000000000000000815260040161106690615289565b60405180910390fd5b60001515601660003373ffffffffffffffffffffffffffffffffffffffff1673ffffffffffffffffffffffffffffffffffffffff16815260200190815260200160002060050160009054906101000a900460ff161515148015611125575060001515601460003373ffffffffffffffffffffffffffffffffffffffff1673ffffffffffffffffffffffffffffffffffffffff16815260200190815260200160002060050160009054906101000a900460ff161515145b8015611184575060001515601560003373ffffffffffffffffffffffffffffffffffffffff1673ffffffffffffffffffffffffffffffffffffffff16815260200190815260200160002060040160149054906101000a900460ff161515145b6111c3576040517f08c379a00000000000000000000000000000000000000000000000000000000081526004016111ba906152e9565b60405180910390fd5b600460008154809291906111d690615947565b919050555060006040518060c0016040528060045481526020018581526020018481526020013373ffffffffffffffffffffffffffffffffffffffff16815260200183815260200160011515815250905080601660003373ffffffffffffffffffffffffffffffffffffffff1673ffffffffffffffffffffffffffffffffffffffff16815260200190815260200160002060008201518160000155602082015181600101908051906020019061128d929190614124565b5060408201518160020190805190602001906112aa929190614124565b5060608201518160030160006101000a81548173ffffffffffffffffffffffffffffffffffffffff021916908373ffffffffffffffffffffffffffffffffffffffff160217905550608082015181600401908051906020019061130e929190614124565b5060a08201518160050160006101000a81548160ff02191690831515021790555090505050505050565b600060011515601460003373ffffffffffffffffffffffffffffffffffffffff1673ffffffffffffffffffffffffffffffffffffffff16815260200190815260200160002060050160009054906101000a900460ff1615151415611412576000600154116113db576040517f08c379a00000000000000000000000000000000000000000000000000000000081526004016113d290615209565b60405180910390fd5b81620f4240601760008681526020019081526020016000206007015461140191906157eb565b61140b91906157eb565b9050611562565b60011515601560003373ffffffffffffffffffffffffffffffffffffffff1673ffffffffffffffffffffffffffffffffffffffff16815260200190815260200160002060040160149054906101000a900460ff16151514156114ea576000600254116114b3576040517f08c379a00000000000000000000000000000000000000000000000000000000081526004016114aa90615209565b60405180910390fd5b81620f424060186000868152602001908152602001600020600801546114d991906157eb565b6114e391906157eb565b9050611562565b60006003541161152f576040517f08c379a000000000000000000000000000000000000000000000000000000000815260040161152690615209565b60405180910390fd5b81620f424060196000868152602001908152602001600020600b015461155591906157eb565b61155f91906157eb565b90505b92915050565b6002548211156115ad576040517f08c379a00000000000000000000000000000000000000000000000000000000081526004016115a4906154c9565b60405180910390fd5b60011515601460003373ffffffffffffffffffffffffffffffffffffffff1673ffffffffffffffffffffffffffffffffffffffff16815260200190815260200160002060050160009054906101000a900460ff16151514611643576040517f08c379a000000000000000000000000000000000000000000000000000000000815260040161163a90615229565b60405180910390fd5b60176000601860008581526020019081526020016000206001015481526020019081526020016000206007015460646011546017600060186000888152602001908152602001600020600101548152602001908152602001600020600701546116ac91906157eb565b6116b691906157ba565b6116c09190615764565b811115611702576040517f08c379a00000000000000000000000000000000000000000000000000000000081526004016116f990615309565b60405180910390fd5b8060186000848152602001908152602001600020600801819055505050565b601660205280600052604060002060009150905080600001549080600101805461174a90615915565b80601f016020809104026020016040519081016040528092919081815260200182805461177690615915565b80156117c35780601f10611798576101008083540402835291602001916117c3565b820191906000526020600020905b8154815290600101906020018083116117a657829003601f168201915b5050505050908060020180546117d890615915565b80601f016020809104026020016040519081016040528092919081815260200182805461180490615915565b80156118515780601f1061182657610100808354040283529160200191611851565b820191906000526020600020905b81548152906001019060200180831161183457829003601f168201915b5050505050908060030160009054906101000a900473ffffffffffffffffffffffffffffffffffffffff169080600401805461188c90615915565b80601f01602080910402602001604051908101604052809291908181526020018280546118b890615915565b80156119055780601f106118da57610100808354040283529160200191611905565b820191906000526020600020905b8154815290600101906020018083116118e857829003601f168201915b5050505050908060050160009054906101000a900460ff16905086565b60008054906101000a900473ffffffffffffffffffffffffffffffffffffffff1673ffffffffffffffffffffffffffffffffffffffff163373ffffffffffffffffffffffffffffffffffffffff1614156119b1576040517f08c379a00000000000000000000000000000000000000000000000000000000081526004016119a890615469565b60405180910390fd5b60001515601660003373ffffffffffffffffffffffffffffffffffffffff1673ffffffffffffffffffffffffffffffffffffffff16815260200190815260200160002060050160009054906101000a900460ff161515148015611a67575060001515601460003373ffffffffffffffffffffffffffffffffffffffff1673ffffffffffffffffffffffffffffffffffffffff16815260200190815260200160002060050160009054906101000a900460ff161515145b8015611ac6575060001515601560003373ffffffffffffffffffffffffffffffffffffffff1673ffffffffffffffffffffffffffffffffffffffff16815260200190815260200160002060040160149054906101000a900460ff161515145b611b05576040517f08c379a0000000000000000000000000000000000000000000000000000000008152600401611afc906152e9565b60405180910390fd5b60066000815480929190611b1890615947565b919050555060006040518060c0016040528060065481526020018581526020018481526020018381526020013373ffffffffffffffffffffffffffffffffffffffff16815260200160011515815250905080601560003373ffffffffffffffffffffffffffffffffffffffff1673ffffffffffffffffffffffffffffffffffffffff168152602001908152602001600020600082015181600001556020820151816001019080519060200190611bcf929190614124565b506040820151816002019080519060200190611bec929190614124565b506060820151816003019080519060200190611c09929190614124565b5060808201518160040160006101000a81548173ffffffffffffffffffffffffffffffffffffffff021916908373ffffffffffffffffffffffffffffffffffffffff16021790555060a08201518160040160146101000a81548160ff02191690831515021790555090505050505050565b60025481565b60008054906101000a900473ffffffffffffffffffffffffffffffffffffffff1673ffffffffffffffffffffffffffffffffffffffff163373ffffffffffffffffffffffffffffffffffffffff161415611d0f576040517f08c379a0000000000000000000000000000000000000000000000000000000008152600401611d06906153a9565b60405180910390fd5b60001515601660003373ffffffffffffffffffffffffffffffffffffffff1673ffffffffffffffffffffffffffffffffffffffff16815260200190815260200160002060050160009054906101000a900460ff161515148015611dc5575060001515601460003373ffffffffffffffffffffffffffffffffffffffff1673ffffffffffffffffffffffffffffffffffffffff16815260200190815260200160002060050160009054906101000a900460ff161515145b8015611e24575060001515601560003373ffffffffffffffffffffffffffffffffffffffff1673ffffffffffffffffffffffffffffffffffffffff16815260200190815260200160002060040160149054906101000a900460ff161515145b611e63576040517f08c379a0000000000000000000000000000000000000000000000000000000008152600401611e5a90615409565b60405180910390fd5b60056000815480929190611e7690615947565b919050555060006040518060c0016040528060055481526020018581526020018481526020013373ffffffffffffffffffffffffffffffffffffffff16815260200183815260200160011515815250905080601460003373ffffffffffffffffffffffffffffffffffffffff1673ffffffffffffffffffffffffffffffffffffffff168152602001908152602001600020600082015181600001556020820151816001019080519060200190611f2d929190614124565b506040820151816002019080519060200190611f4a929190614124565b5060608201518160030160006101000a81548173ffffffffffffffffffffffffffffffffffffffff021916908373ffffffffffffffffffffffffffffffffffffffff1602179055506080820151816004019080519060200190611fae929190614124565b5060a08201518160050160006101000a81548160ff02191690831515021790555090505050505050565b60011515600b60009054906101000a900460ff1615151461202e576040517f08c379a000000000000000000000000000000000000000000000000000000000815260040161202590615349565b60405180910390fd5b60011515601360009054906101000a900460ff16151514612084576040517f08c379a000000000000000000000000000000000000000000000000000000000815260040161207b90615489565b60405180910390fd5b60011515601660003373ffffffffffffffffffffffffffffffffffffffff1673ffffffffffffffffffffffffffffffffffffffff16815260200190815260200160002060050160009054906101000a900460ff1615151461211a576040517f08c379a000000000000000000000000000000000000000000000000000000000815260040161211190615269565b60405180910390fd5b6000600d8460048110612156577f4e487b7100000000000000000000000000000000000000000000000000000000600052603260045260246000fd5b015490506001600081548092919061216d90615947565b919050555061217a6141aa565b60008514156121c6576040518060400160405280600581526020017f6a61776172000000000000000000000000000000000000000000000000000000815250816020018190525061229f565b6001851415612212576040518060400160405280600681526020017f62616a6172610000000000000000000000000000000000000000000000000000815250816020018190525061229e565b600285141561225e576040518060400160405280600581526020017f7768656174000000000000000000000000000000000000000000000000000000815250816020018190525061229d565b6040518060400160405280600981526020017f67726f756e646e7574000000000000000000000000000000000000000000000081525081602001819052505b5b5b6001548160000181815250508381604001818152505082816060018190525033816080019073ffffffffffffffffffffffffffffffffffffffff16908173ffffffffffffffffffffffffffffffffffffffff1681525050818161010001818152505060018160e0019015159081151581525050601660003373ffffffffffffffffffffffffffffffffffffffff1673ffffffffffffffffffffffffffffffffffffffff168152602001908152602001600020600101805461235f90615915565b80601f016020809104026020016040519081016040528092919081815260200182805461238b90615915565b80156123d85780601f106123ad576101008083540402835291602001916123d8565b820191906000526020600020905b8154815290600101906020018083116123bb57829003601f168201915b505050505081610120018190525080601760006001548152602001908152602001600020600082015181600001556020820151816001019080519060200190612422929190614124565b50604082015181600201556060820151816003019080519060200190612449929190614124565b5060808201518160040160006101000a81548173ffffffffffffffffffffffffffffffffffffffff021916908373ffffffffffffffffffffffffffffffffffffffff16021790555060a08201518160050160006101000a81548173ffffffffffffffffffffffffffffffffffffffff021916908373ffffffffffffffffffffffffffffffffffffffff16021790555060c08201518160060160006101000a81548173ffffffffffffffffffffffffffffffffffffffff021916908373ffffffffffffffffffffffffffffffffffffffff16021790555060e08201518160060160146101000a81548160ff0219169083151502179055506101008201518160070155610120820151816008019080519060200190612567929190614124565b509050505050505050565b61257a614241565b6002548211156125bf576040517f08c379a00000000000000000000000000000000000000000000000000000000081526004016125b6906152c9565b60405180910390fd5b6018600083815260200190815260200160002060405180610140016040529081600082015481526020016001820154815260200160028201805461260290615915565b80601f016020809104026020016040519081016040528092919081815260200182805461262e90615915565b801561267b5780601f106126505761010080835404028352916020019161267b565b820191906000526020600020905b81548152906001019060200180831161265e57829003601f168201915b5050505050815260200160038201548152602001600482015481526020016005820180546126a890615915565b80601f01602080910402602001604051908101604052809291908181526020018280546126d490615915565b80156127215780601f106126f657610100808354040283529160200191612721565b820191906000526020600020905b81548152906001019060200180831161270457829003601f168201915b505050505081526020016006820160009054906101000a900473ffffffffffffffffffffffffffffffffffffffff1673ffffffffffffffffffffffffffffffffffffffff1673ffffffffffffffffffffffffffffffffffffffff1681526020016007820160009054906101000a900473ffffffffffffffffffffffffffffffffffffffff1673ffffffffffffffffffffffffffffffffffffffff1673ffffffffffffffffffffffffffffffffffffffff168152602001600882015481526020016009820180546127f090615915565b80601f016020809104026020016040519081016040528092919081815260200182805461281c90615915565b80156128695780601f1061283e57610100808354040283529160200191612869565b820191906000526020600020905b81548152906001019060200180831161284c57829003601f168201915b5050505050815250509050919050565b60015481565b60001515601460003373ffffffffffffffffffffffffffffffffffffffff1673ffffffffffffffffffffffffffffffffffffffff16815260200190815260200160002060050160009054906101000a900460ff161515148015612935575060001515601560003373ffffffffffffffffffffffffffffffffffffffff1673ffffffffffffffffffffffffffffffffffffffff16815260200190815260200160002060040160149054906101000a900460ff161515145b612974576040517f08c379a000000000000000000000000000000000000000000000000000000000815260040161296b906154e9565b60405180910390fd5b60001515601560003373ffffffffffffffffffffffffffffffffffffffff1673ffffffffffffffffffffffffffffffffffffffff16815260200190815260200160002060040160149054906101000a900460ff16151514612a0a576040517f08c379a0000000000000000000000000000000000000000000000000000000008152600401612a0190615549565b60405180910390fd5b6003548211158015612a1c5750600082115b8015612a2a57506000600354115b612a69576040517f08c379a0000000000000000000000000000000000000000000000000000000008152600401612a60906154a9565b60405180910390fd5b80620f424060196000858152602001908152602001600020600b0154612a8f91906157eb565b612a9991906157eb565b3414612ada576040517f08c379a0000000000000000000000000000000000000000000000000000000008152600401612ad190615529565b60405180910390fd5b8060196000848152602001908152602001600020600601541015612b33576040517f08c379a0000000000000000000000000000000000000000000000000000000008152600401612b2a90615429565b60405180910390fd5b6000816019600085815260200190815260200160002060060154612b579190615845565b905080601960008581526020019081526020016000206006018190555060196000848152602001908152602001600020600a0160009054906101000a900473ffffffffffffffffffffffffffffffffffffffff1673ffffffffffffffffffffffffffffffffffffffff166108fc83620f424060196000888152602001908152602001600020600b0154612bea91906157eb565b612bf491906157eb565b9081150290604051600060405180830381858888f19350505050158015612c1f573d6000803e3d6000fd5b50505050565b612c2d61407a565b600354821115612c72576040517f08c379a0000000000000000000000000000000000000000000000000000000008152600401612c69906151e9565b60405180910390fd5b60196000838152602001908152602001600020604051806101a0016040529081600082015481526020016001820154815260200160028201548152602001600382018054612cbf90615915565b80601f0160208091040260200160405190810160405280929190818152602001828054612ceb90615915565b8015612d385780601f10612d0d57610100808354040283529160200191612d38565b820191906000526020600020905b815481529060010190602001808311612d1b57829003601f168201915b50505050508152602001600482015481526020016005820154815260200160068201548152602001600782018054612d6f90615915565b80601f0160208091040260200160405190810160405280929190818152602001828054612d9b90615915565b8015612de85780601f10612dbd57610100808354040283529160200191612de8565b820191906000526020600020905b815481529060010190602001808311612dcb57829003601f168201915b505050505081526020016008820160009054906101000a900473ffffffffffffffffffffffffffffffffffffffff1673ffffffffffffffffffffffffffffffffffffffff1673ffffffffffffffffffffffffffffffffffffffff1681526020016009820160009054906101000a900473ffffffffffffffffffffffffffffffffffffffff1673ffffffffffffffffffffffffffffffffffffffff1673ffffffffffffffffffffffffffffffffffffffff168152602001600a820160009054906101000a900473ffffffffffffffffffffffffffffffffffffffff1673ffffffffffffffffffffffffffffffffffffffff1673ffffffffffffffffffffffffffffffffffffffff168152602001600b8201548152602001600c82018054612f0d90615915565b80601f0160208091040260200160405190810160405280929190818152602001828054612f3990615915565b8015612f865780601f10612f5b57610100808354040283529160200191612f86565b820191906000526020600020905b815481529060010190602001808311612f6957829003601f168201915b5050505050815250509050919050565b60008054906101000a900473ffffffffffffffffffffffffffffffffffffffff1673ffffffffffffffffffffffffffffffffffffffff163373ffffffffffffffffffffffffffffffffffffffff1614613024576040517f08c379a000000000000000000000000000000000000000000000000000000000815260040161301b90615249565b60405180910390fd5b83600d600060048110613060577f4e487b7100000000000000000000000000000000000000000000000000000000600052603260045260246000fd5b018190555082600d6001600481106130a1577f4e487b7100000000000000000000000000000000000000000000000000000000600052603260045260246000fd5b018190555081600d6002600481106130e2577f4e487b7100000000000000000000000000000000000000000000000000000000600052603260045260246000fd5b018190555080600d600360048110613123577f4e487b7100000000000000000000000000000000000000000000000000000000600052603260045260246000fd5b01819055506001600b60006101000a81548160ff02191690831515021790555050505050565b60008054906101000a900473ffffffffffffffffffffffffffffffffffffffff1673ffffffffffffffffffffffffffffffffffffffff163373ffffffffffffffffffffffffffffffffffffffff16146131d7576040517f08c379a00000000000000000000000000000000000000000000000000000000081526004016131ce90615249565b60405180910390fd5b81601181905550806012819055506001601360006101000a81548160ff0219169083151502179055505050565b61320c6141aa565b600154821115613251576040517f08c379a000000000000000000000000000000000000000000000000000000000815260040161324890615509565b60405180910390fd5b60176000838152602001908152602001600020604051806101400160405290816000820154815260200160018201805461328a90615915565b80601f01602080910402602001604051908101604052809291908181526020018280546132b690615915565b80156133035780601f106132d857610100808354040283529160200191613303565b820191906000526020600020905b8154815290600101906020018083116132e657829003601f168201915b505050505081526020016002820154815260200160038201805461332690615915565b80601f016020809104026020016040519081016040528092919081815260200182805461335290615915565b801561339f5780601f106133745761010080835404028352916020019161339f565b820191906000526020600020905b81548152906001019060200180831161338257829003601f168201915b505050505081526020016004820160009054906101000a900473ffffffffffffffffffffffffffffffffffffffff1673ffffffffffffffffffffffffffffffffffffffff1673ffffffffffffffffffffffffffffffffffffffff1681526020016005820160009054906101000a900473ffffffffffffffffffffffffffffffffffffffff1673ffffffffffffffffffffffffffffffffffffffff1673ffffffffffffffffffffffffffffffffffffffff1681526020016006820160009054906101000a900473ffffffffffffffffffffffffffffffffffffffff1673ffffffffffffffffffffffffffffffffffffffff1673ffffffffffffffffffffffffffffffffffffffff1681526020016006820160149054906101000a900460ff16151515158152602001600782015481526020016008820180546134df90615915565b80601f016020809104026020016040519081016040528092919081815260200182805461350b90615915565b80156135585780601f1061352d57610100808354040283529160200191613558565b820191906000526020600020905b81548152906001019060200180831161353b57829003601f168201915b5050505050815250509050919050565b6003548211156135ad576040517f08c379a00000000000000000000000000000000000000000000000000000000081526004016135a490615369565b60405180910390fd5b60011515601560003373ffffffffffffffffffffffffffffffffffffffff1673ffffffffffffffffffffffffffffffffffffffff16815260200190815260200160002060040160149054906101000a900460ff16151514613643576040517f08c379a000000000000000000000000000000000000000000000000000000000815260040161363a90615229565b60405180910390fd5b60186000601960008581526020019081526020016000206002015481526020019081526020016000206008015460646012546018600060196000888152602001908152602001600020600201548152602001908152602001600020600801546136ac91906157eb565b6136b691906157ba565b6136c09190615764565b811115613702576040517f08c379a00000000000000000000000000000000000000000000000000000000081526004016136f9906152a9565b60405180910390fd5b8060196000848152602001908152602001600020600b01819055505050565b60011515601460003373ffffffffffffffffffffffffffffffffffffffff1673ffffffffffffffffffffffffffffffffffffffff16815260200190815260200160002060050160009054906101000a900460ff161515146137b7576040517f08c379a00000000000000000000000000000000000000000000000000000000081526004016137ae90615449565b60405180910390fd5b6001548211156137fc576040517f08c379a00000000000000000000000000000000000000000000000000000000081526004016137f390615329565b60405180910390fd5b80620f4240601760008581526020019081526020016000206007015461382291906157eb565b61382c91906157eb565b341461386d576040517f08c379a000000000000000000000000000000000000000000000000000000000815260040161386490615529565b60405180910390fd5b80601760008481526020019081526020016000206002015410156138c6576040517f08c379a00000000000000000000000000000000000000000000000000000000081526004016138bd906153c9565b60405180910390fd5b6138ce614241565b600260008154809291906138e190615947565b91905055506002548160000181815250508281602001818152505081601760008581526020019081526020016000206002015461391e9190615845565b81606001818152505060176000848152602001908152602001600020600101805461394890615915565b80601f016020809104026020016040519081016040528092919081815260200182805461397490615915565b80156139c15780601f10613996576101008083540402835291602001916139c1565b820191906000526020600020905b8154815290600101906020018083116139a457829003601f168201915b50505050508160400181905250818160800181815250506017600084815260200190815260200160002060030180546139f990615915565b80601f0160208091040260200160405190810160405280929190818152602001828054613a2590615915565b8015613a725780601f10613a4757610100808354040283529160200191613a72565b820191906000526020600020905b815481529060010190602001808311613a5557829003601f168201915b50505050508160a001819052506017600084815260200190815260200160002060040160009054906101000a900473ffffffffffffffffffffffffffffffffffffffff168160c0019073ffffffffffffffffffffffffffffffffffffffff16908173ffffffffffffffffffffffffffffffffffffffff1681525050338160e0019073ffffffffffffffffffffffffffffffffffffffff16908173ffffffffffffffffffffffffffffffffffffffff1681525050601460003373ffffffffffffffffffffffffffffffffffffffff1673ffffffffffffffffffffffffffffffffffffffff1681526020019081526020016000206001018054613b7290615915565b80601f0160208091040260200160405190810160405280929190818152602001828054613b9e90615915565b8015613beb5780601f10613bc057610100808354040283529160200191613beb565b820191906000526020600020905b815481529060010190602001808311613bce57829003601f168201915b5050505050816101200181905250601760008481526020019081526020016000206007015460646011546017600087815260200190815260200160002060070154613c3691906157eb565b613c4091906157ba565b613c4a9190615764565b81610100018181525050816017600085815260200190815260200160002060020154613c769190615845565b60176000858152602001908152602001600020600201819055506017600084815260200190815260200160002060040160009054906101000a900473ffffffffffffffffffffffffffffffffffffffff1673ffffffffffffffffffffffffffffffffffffffff166108fc83620f42406017600088815260200190815260200160002060070154613d0691906157eb565b613d1091906157eb565b9081150290604051600060405180830381858888f19350505050158015613d3b573d6000803e3d6000fd5b508060186000600254815260200190815260200160002060008201518160000155602082015181600101556040820151816002019080519060200190613d82929190614124565b50606082015181600301556080820151816004015560a0820151816005019080519060200190613db3929190614124565b5060c08201518160060160006101000a81548173ffffffffffffffffffffffffffffffffffffffff021916908373ffffffffffffffffffffffffffffffffffffffff16021790555060e08201518160070160006101000a81548173ffffffffffffffffffffffffffffffffffffffff021916908373ffffffffffffffffffffffffffffffffffffffff1602179055506101008201518160080155610120820151816009019080519060200190613e6a929190614124565b50905050505050565b60035481565b6014602052806000526040600020600091509050806000015490806001018054613ea290615915565b80601f0160208091040260200160405190810160405280929190818152602001828054613ece90615915565b8015613f1b5780601f10613ef057610100808354040283529160200191613f1b565b820191906000526020600020905b815481529060010190602001808311613efe57829003601f168201915b505050505090806002018054613f3090615915565b80601f0160208091040260200160405190810160405280929190818152602001828054613f5c90615915565b8015613fa95780601f10613f7e57610100808354040283529160200191613fa9565b820191906000526020600020905b815481529060010190602001808311613f8c57829003601f168201915b5050505050908060030160009054906101000a900473ffffffffffffffffffffffffffffffffffffffff1690806004018054613fe490615915565b80601f016020809104026020016040519081016040528092919081815260200182805461401090615915565b801561405d5780601f106140325761010080835404028352916020019161405d565b820191906000526020600020905b81548152906001019060200180831161404057829003601f168201915b5050505050908060050160009054906101000a900460ff16905086565b604051806101a001604052806000815260200160008152602001600081526020016060815260200160008152602001600081526020016000815260200160608152602001600073ffffffffffffffffffffffffffffffffffffffff168152602001600073ffffffffffffffffffffffffffffffffffffffff168152602001600073ffffffffffffffffffffffffffffffffffffffff16815260200160008152602001606081525090565b82805461413090615915565b90600052602060002090601f0160209004810192826141525760008555614199565b82601f1061416b57805160ff1916838001178555614199565b82800160010185558215614199579182015b8281111561419857825182559160200191906001019061417d565b5b5090506141a691906142c0565b5090565b60405180610140016040528060008152602001606081526020016000815260200160608152602001600073ffffffffffffffffffffffffffffffffffffffff168152602001600073ffffffffffffffffffffffffffffffffffffffff168152602001600073ffffffffffffffffffffffffffffffffffffffff16815260200160001515815260200160008152602001606081525090565b604051806101400160405280600081526020016000815260200160608152602001600081526020016000815260200160608152602001600073ffffffffffffffffffffffffffffffffffffffff168152602001600073ffffffffffffffffffffffffffffffffffffffff16815260200160008152602001606081525090565b5b808211156142d95760008160009055506001016142c1565b5090565b60006142f06142eb84615707565b6156d6565b90508281526020810184848401111561430857600080fd5b6143138482856158d3565b509392505050565b60008135905061432a81615a5d565b92915050565b600082601f83011261434157600080fd5b81356143518482602086016142dd565b91505092915050565b60008135905061436981615a74565b92915050565b60006020828403121561438157600080fd5b600061438f8482850161431b565b91505092915050565b6000806000606084860312156143ad57600080fd5b600084013567ffffffffffffffff8111156143c757600080fd5b6143d386828701614330565b935050602084013567ffffffffffffffff8111156143f057600080fd5b6143fc86828701614330565b925050604084013567ffffffffffffffff81111561441957600080fd5b61442586828701614330565b9150509250925092565b60006020828403121561444157600080fd5b600061444f8482850161435a565b91505092915050565b6000806040838503121561446b57600080fd5b60006144798582860161435a565b925050602061448a8582860161435a565b9150509250929050565b6000806000606084860312156144a957600080fd5b60006144b78682870161435a565b93505060206144c88682870161435a565b925050604084013567ffffffffffffffff8111156144e557600080fd5b6144f186828701614330565b9150509250925092565b6000806000806080858703121561451157600080fd5b600061451f8782880161435a565b94505060206145308782880161435a565b93505060406145418782880161435a565b92505060606145528782880161435a565b91505092959194509250565b6145678161588b565b82525050565b61457681615879565b82525050565b6145858161589d565b82525050565b6145948161589d565b82525050565b60006145a582615737565b6145af8185615742565b93506145bf8185602086016158e2565b6145c881615a4c565b840191505092915050565b60006145de82615737565b6145e88185615753565b93506145f88185602086016158e2565b61460181615a4c565b840191505092915050565b6000614619602a83615753565b91507f456e7465722076616c69642063726f702049642f4e6f2063726f70732061766160008301527f696c61626c6520796574000000000000000000000000000000000000000000006020830152604082019050919050565b600061467f601583615753565b91507f4e6f2063726f707320746f2063616c63756c61746500000000000000000000006000830152602082019050919050565b60006146bf601583615753565b91507f596f7520617265206e6f742072656769737472656400000000000000000000006000830152602082019050919050565b60006146ff601983615753565b91507f204f6e6c7920676f7665726e6d656e742063616e2063616c6c000000000000006000830152602082019050919050565b600061473f603083615753565b91507f596f7520617265206e6f74207265676973746572656420796574206f7220796f60008301527f7520617265206e6f74206661726d6572000000000000000000000000000000006020830152604082019050919050565b60006147a5601483615753565b91507f6f776e65722063616e74206265206661726d65720000000000000000000000006000830152602082019050919050565b60006147e5603383615753565b91507f53657474696e6720707269636520686967686572207468616e20676f76206e6f60008301527f726d7320617265206e6f7420616c6c6f776564000000000000000000000000006020830152604082019050919050565b600061484b601383615753565b91507f456e7465722076616c69642063726f70206964000000000000000000000000006000830152602082019050919050565b600061488b601983615753565b91507f596f752061726520616c726561647920726567697374726564000000000000006000830152602082019050919050565b60006148cb602d83615753565b91507f4e6f7420616c6c6f776564746f2073657420707269636520686967686572207460008301527f68616e20676f76207072696365000000000000000000000000000000000000006020830152604082019050919050565b6000614931601383615753565b91507f656e7465722076616c69642063726f70206964000000000000000000000000006000830152602082019050919050565b6000614971601f83615753565b91507f676f762069736e7420696e697469616c697a65642070726963657320796574006000830152602082019050919050565b60006149b1601a83615753565b91507f546869732063726f7020696420646f65736e27742065786973740000000000006000830152602082019050919050565b60006149f1602f83615753565b91507f596f7520617265206e6f742072656769737465726564206f7220796f7520617260008301527f65206e6f74207375626465616c657200000000000000000000000000000000006020830152604082019050919050565b6000614a57601483615753565b91507f6f776e65722063616e74206265206465616c65720000000000000000000000006000830152602082019050919050565b6000614a97602683615753565b91507f63726f7020696e2074686973207175616e74697479206973206e6f742061766160008301527f696c61626c6500000000000000000000000000000000000000000000000000006020830152604082019050919050565b6000614afd601383615753565b91507f456e7465722076616c6964206e756d62657273000000000000000000000000006000830152602082019050919050565b6000614b3d601a83615753565b91507f596f752061726520616c726561647920726567697374657265640000000000006000830152602082019050919050565b6000614b7d602d83615753565b91507f54686973206d756368207175616e74697479206e6f7420617661696c61626c6560008301527f206174207375626465616c6572000000000000000000000000000000000000006020830152604082019050919050565b6000614be3602483615753565b91507f596f7520617265206e6f74206465616c6572206f72206e6f742072656769737460008301527f65726564000000000000000000000000000000000000000000000000000000006020830152604082019050919050565b6000614c49601783615753565b91507f6f776e65722063616e74206265207375626465616c65720000000000000000006000830152602082019050919050565b6000614c89602583615753565b91507f676f762069736e7420696e697469616c697a65642070726f666974207261746560008301527f73207965740000000000000000000000000000000000000000000000000000006020830152604082019050919050565b6000614cef602783615753565b91507f456e7465722076616c69642063726f702049642f63726f7073206e6f7420617660008301527f61696c61626c65000000000000000000000000000000000000000000000000006020830152604082019050919050565b6000614d55601283615753565b91507f456e7465722076616c6964206e756d62657200000000000000000000000000006000830152602082019050919050565b6000614d95603b83615753565b91507f4465616c657220616e64207375626465616c6572206e6f7420616c6c6f77656460008301527f20746f206275792063726f702066726f6d207375626465616c657200000000006020830152604082019050919050565b6000614dfb600f83615753565b91507f496e76616c69642063726f7020496400000000000000000000000000000000006000830152602082019050919050565b6000614e3b601883615753565b91507f506c656173652073656e6420657861637420616d6f756e7400000000000000006000830152602082019050919050565b6000614e7b602783615753565b91507f5375626465616c65722063616e2774206275792063726f702066726f6d20737560008301527f626465616c6572000000000000000000000000000000000000000000000000006020830152604082019050919050565b600061014083016000830151614eed60008601826151cb565b5060208301518482036020860152614f05828261459a565b9150506040830151614f1a60408601826151cb565b5060608301518482036060860152614f32828261459a565b9150506080830151614f47608086018261455e565b5060a0830151614f5a60a086018261455e565b5060c0830151614f6d60c086018261455e565b5060e0830151614f8060e086018261457c565b50610100830151614f956101008601826151cb565b50610120830151848203610120860152614faf828261459a565b9150508091505092915050565b600061014083016000830151614fd560008601826151cb565b506020830151614fe860208601826151cb565b5060408301518482036040860152615000828261459a565b915050606083015161501560608601826151cb565b50608083015161502860808601826151cb565b5060a083015184820360a0860152615040828261459a565b91505060c083015161505560c086018261455e565b5060e083015161506860e086018261455e565b5061010083015161507d6101008601826151cb565b50610120830151848203610120860152615097828261459a565b9150508091505092915050565b60006101a0830160008301516150bd60008601826151cb565b5060208301516150d060208601826151cb565b5060408301516150e360408601826151cb565b50606083015184820360608601526150fb828261459a565b915050608083015161511060808601826151cb565b5060a083015161512360a08601826151cb565b5060c083015161513660c08601826151cb565b5060e083015184820360e086015261514e828261459a565b91505061010083015161516561010086018261455e565b5061012083015161517a61012086018261455e565b5061014083015161518f61014086018261455e565b506101608301516151a46101608601826151cb565b506101808301518482036101808601526151be828261459a565b9150508091505092915050565b6151d4816158c9565b82525050565b6151e3816158c9565b82525050565b600060208201905081810360008301526152028161460c565b9050919050565b6000602082019050818103600083015261522281614672565b9050919050565b60006020820190508181036000830152615242816146b2565b9050919050565b60006020820190508181036000830152615262816146f2565b9050919050565b6000602082019050818103600083015261528281614732565b9050919050565b600060208201905081810360008301526152a281614798565b9050919050565b600060208201905081810360008301526152c2816147d8565b9050919050565b600060208201905081810360008301526152e28161483e565b9050919050565b600060208201905081810360008301526153028161487e565b9050919050565b60006020820190508181036000830152615322816148be565b9050919050565b6000602082019050818103600083015261534281614924565b9050919050565b6000602082019050818103600083015261536281614964565b9050919050565b60006020820190508181036000830152615382816149a4565b9050919050565b600060208201905081810360008301526153a2816149e4565b9050919050565b600060208201905081810360008301526153c281614a4a565b9050919050565b600060208201905081810360008301526153e281614a8a565b9050919050565b6000602082019050818103600083015261540281614af0565b9050919050565b6000602082019050818103600083015261542281614b30565b9050919050565b6000602082019050818103600083015261544281614b70565b9050919050565b6000602082019050818103600083015261546281614bd6565b9050919050565b6000602082019050818103600083015261548281614c3c565b9050919050565b600060208201905081810360008301526154a281614c7c565b9050919050565b600060208201905081810360008301526154c281614ce2565b9050919050565b600060208201905081810360008301526154e281614d48565b9050919050565b6000602082019050818103600083015261550281614d88565b9050919050565b6000602082019050818103600083015261552281614dee565b9050919050565b6000602082019050818103600083015261554281614e2e565b9050919050565b6000602082019050818103600083015261556281614e6e565b9050919050565b600060208201905081810360008301526155838184614ed4565b905092915050565b600060208201905081810360008301526155a58184614fbc565b905092915050565b600060208201905081810360008301526155c781846150a4565b905092915050565b60006020820190506155e460008301846151da565b92915050565b600060c0820190506155ff60008301896151da565b818103602083015261561181886145d3565b9050818103604083015261562581876145d3565b9050615634606083018661456d565b818103608083015261564681856145d3565b905061565560a083018461458b565b979650505050505050565b600060c08201905061567560008301896151da565b818103602083015261568781886145d3565b9050818103604083015261569b81876145d3565b905081810360608301526156af81866145d3565b90506156be608083018561456d565b6156cb60a083018461458b565b979650505050505050565b6000604051905081810181811067ffffffffffffffff821117156156fd576156fc615a1d565b5b8060405250919050565b600067ffffffffffffffff82111561572257615721615a1d565b5b601f19601f8301169050602081019050919050565b600081519050919050565b600082825260208201905092915050565b600082825260208201905092915050565b600061576f826158c9565b915061577a836158c9565b9250827fffffffffffffffffffffffffffffffffffffffffffffffffffffffffffffffff038211156157af576157ae615990565b5b828201905092915050565b60006157c5826158c9565b91506157d0836158c9565b9250826157e0576157df6159bf565b5b828204905092915050565b60006157f6826158c9565b9150615801836158c9565b9250817fffffffffffffffffffffffffffffffffffffffffffffffffffffffffffffffff048311821515161561583a57615839615990565b5b828202905092915050565b6000615850826158c9565b915061585b836158c9565b92508282101561586e5761586d615990565b5b828203905092915050565b6000615884826158a9565b9050919050565b6000615896826158a9565b9050919050565b60008115159050919050565b600073ffffffffffffffffffffffffffffffffffffffff82169050919050565b6000819050919050565b82818337600083830152505050565b60005b838110156159005780820151818401526020810190506158e5565b8381111561590f576000848401525b50505050565b6000600282049050600182168061592d57607f821691505b60208210811415615941576159406159ee565b5b50919050565b6000615952826158c9565b91507fffffffffffffffffffffffffffffffffffffffffffffffffffffffffffffffff82141561598557615984615990565b5b600182019050919050565b7f4e487b7100000000000000000000000000000000000000000000000000000000600052601160045260246000fd5b7f4e487b7100000000000000000000000000000000000000000000000000000000600052601260045260246000fd5b7f4e487b7100000000000000000000000000000000000000000000000000000000600052602260045260246000fd5b7f4e487b7100000000000000000000000000000000000000000000000000000000600052604160045260246000fd5b6000601f19601f8301169050919050565b615a6681615879565b8114615a7157600080fd5b50565b615a7d816158c9565b8114615a8857600080fd5b5056fea2646970667358221220b47fec38eda9f6900acd7379b69d1f7ebf83e8cbf8de0bb7505b33c334f7976f64736f6c63430008000033",
  "immutableReferences": {},
  "source": "//SPDX-License-Identifier: <SPDX-License>SPDX-License-Identifier: UNLICENSED\r\npragma solidity ^0.8.0;\r\n\r\ncontract AgriBlock\r\n{\r\n//state variables\r\n    address owner;\r\n    uint public cropCounter; //for key as crop mapping n counting crops\r\n    uint public dCropCounter; //for key as dealer's crop mapping n counting crops\r\n    uint public sdCropCounter;//\r\n    uint farmerCounter;\r\n    uint dealerCounter;\r\n    uint subdealerCounter;\r\n\r\n    //crops\r\n    uint jwari;\r\n    uint bajari;\r\n    uint wheat;\r\n    uint groundnut;\r\n    bool allPricesSet;\r\n    uint arraySize = 4;\r\n    uint [4]  cropTypes;\r\n   \r\n    uint public dealerProfitPercent;\r\n    uint public subdealerProfitPercent;\r\n    bool setProfitPercent;\r\n   \r\n//mappings\r\n//1 dealer to his address\r\n    mapping ( address => Dealer) public dealers;\r\n//2 subdealer to his address\r\n    mapping ( address => SubDealer) public subdealers;\r\n//3 farmer to his address\r\n    mapping ( address => Farmer) public farmers;\r\n//4 crop\r\n    mapping ( uint  => Crop )  crops;\r\n//5 farmer to his Id\r\n\r\n//7 for dealers cropAdde\r\n    mapping (uint => DCrop)  dcrops;\r\n    mapping (uint => SDCrop)  sdcrops;\r\n   \r\n//constructor\r\nconstructor(){owner = msg.sender;}\r\n\r\n//structs\r\n\r\n    struct Farmer\r\n    {\r\n        uint farmerId;\r\n        string farmerName;\r\n        string contact;\r\n        address addrs;\r\n        string email;\r\n        bool isRegistered;\r\n    }\r\n\r\n    struct Dealer\r\n    {\r\n        uint dealerId;\r\n        string dealerName;\r\n        string contact;\r\n        address addrs;\r\n        string email;\r\n        bool isRegistered;\r\n    }\r\n\r\n    struct SubDealer\r\n    {\r\n        uint subDealerId;\r\n        string subdealerName;\r\n        string contact;\r\n        string email;\r\n        address  addrs;\r\n        bool isRegistered;\r\n    }\r\n\r\n    struct Crop\r\n    {\r\n        uint cropId;\r\n        string cropName;\r\n        uint farmer_quantity;\r\n        string location;\r\n        address payable farmerAddrs;\r\n        address payable dealerAddrs;\r\n        address payable subDealerAddrs;\r\n        bool isAdded;\r\n        uint cropPrice;\r\n        //uint cropType;\r\n        string farmerName;\r\n    }\r\n    struct DCrop //struct for delaer's crop\r\n    {\r\n        uint cropId;\r\n        uint farmerCropId;\r\n        string cropName;\r\n        uint farmer_quantity;\r\n        uint dealer_quantity;\r\n        string location;\r\n        address payable farmerAddrs;\r\n        address payable dealerAddrs;\r\n        //bool isAdded;\r\n        uint cropPrice;\r\n        //uint cropType;\r\n        string dealerName;\r\n\r\n    }\r\n   \r\n    struct SDCrop ////struct for delaer's crop\r\n    {\r\n        uint cropId;\r\n        uint farmerCropId;\r\n        uint dealerCropId;\r\n        string cropName;\r\n        uint farmer_quantity;\r\n        uint dealer_quantity;\r\n        uint subdealer_quantity;//imp\r\n        string location;\r\n        address payable farmerAddrs;\r\n        address payable dealerAddrs;\r\n        address payable subdealerAddrs;//imp\r\n        //bool isAdded;\r\n        uint cropPrice;\r\n        //uint cropType;\r\n        string subdealerName;\r\n\r\n    }\r\n\r\n//functions\r\n//functions for GOV\r\n    function setPrice\r\n    (\r\n        uint _jwari,\r\n        uint _bajari,\r\n        uint _wheat,\r\n        uint _groundnut\r\n    )\r\n    public\r\n    {\r\n        \r\n        require ( msg.sender == owner, \" Only government can call\");\r\n\r\n        cropTypes[0]=_jwari;\r\n        cropTypes[1]=_bajari;\r\n        cropTypes[2]=_wheat;\r\n        cropTypes[3]=_groundnut;\r\n        allPricesSet = true;\r\n      }\r\n   \r\n    function setProfitPercentage\r\n    (\r\n        uint _forDealer,\r\n        uint _forSubdealer\r\n    )\r\n    public\r\n    {\r\n        require ( msg.sender == owner, \" Only government can call\");\r\n        dealerProfitPercent =_forDealer;\r\n        subdealerProfitPercent = _forSubdealer;\r\n        setProfitPercent = true;\r\n       \r\n    }\r\n\r\n//functions for farmer\r\n\r\n    function registerFarmer\r\n    (\r\n        string memory _farmerName,\r\n        string memory _phoneNumber,\r\n        string memory _email\r\n    )\r\n    public\r\n    {\r\n        require ( msg.sender!= owner ,\"owner cant be farmer\");\r\n        require (farmers[msg.sender].isRegistered == false && dealers[msg.sender].isRegistered == false && subdealers[msg.sender].isRegistered == false, \"You are already registred\");\r\n        // require (, \"You are already Dealer\");\r\n        // require (, \"You are already subdealer\");\r\n        farmerCounter++;\r\n        Farmer memory farmer = Farmer ( farmerCounter, _farmerName, _phoneNumber, msg.sender, _email ,true);\r\n        farmers [msg.sender] = farmer;\r\n    }\r\n\r\n    function addCropDetails   //only farmer can call\r\n    (\r\n        uint _cropType,\r\n        uint _quantity,\r\n        string memory _location\r\n    )\r\n    public\r\n    {\r\n        require ( allPricesSet==true , \"gov isnt initialized prices yet\" );\r\n        require ( setProfitPercent == true , \"gov isnt initialized profit rates yet\" );\r\n        require (farmers[msg.sender].isRegistered == true, \"You are not registered yet or you are not farmer\");\r\n        uint cropPr = cropTypes[_cropType]; //fetched cropPrice by cropType (by gov)\r\n        cropCounter++;\r\n        Crop memory crop ;\r\n       \r\n        if( _cropType == 0)\r\n        {crop.cropName = \"jawar\";}\r\n        else if(_cropType == 1)\r\n        {crop.cropName = \"bajara\";}\r\n        else if(_cropType == 2)\r\n        {crop.cropName = \"wheat\";}\r\n        else{crop.cropName = \"groundnut\";}\r\n       \r\n        crop.cropId=cropCounter;\r\n        //adding crop type to cropType\r\n        //crop.cropType = _cropType;        \r\n        crop.farmer_quantity=_quantity;\r\n        crop.location=_location;\r\n        crop.farmerAddrs = payable(msg.sender);\r\n        crop.cropPrice = cropPr ;\r\n        crop.isAdded=true;\r\n        crop.farmerName=farmers[msg.sender].farmerName;\r\n        crops[cropCounter] = crop;\r\n        \r\n    }\r\n \r\n    //functions for dealer\r\n    function registerDealer\r\n    (\r\n        string memory _dealerName,\r\n        string memory _phoneNumber,\r\n        string memory _email\r\n    )\r\n    public\r\n    {\r\n        require ( msg.sender!= owner ,\"owner cant be dealer\" );\r\n        // require ( , \"You are already registered\");\r\n        require (farmers[msg.sender].isRegistered == false && dealers[msg.sender].isRegistered == false && subdealers[msg.sender].isRegistered == false,   \"You are already registered\");\r\n        // require (, \"You are already subealer\");\r\n        dealerCounter++;\r\n        Dealer memory dealer = Dealer (dealerCounter,_dealerName,_phoneNumber, msg.sender, _email, true );\r\n        dealers[msg.sender]=dealer;\r\n        //emit dealerRegistered( _dealerName,_phoneNumber,_email);\r\n    }\r\n\r\n    function seeCropsAtFarmer \r\n    (uint _cropId)\r\n    public view \r\n    returns( Crop memory)\r\n    {\r\n        //&& _cropId >0\r\n        require (_cropId <= cropCounter , \"Invalid crop Id\");\r\n        return crops[_cropId];\r\n    }\r\n\r\n\r\n    function buyFromFarmer\r\n    (\r\n        uint _cropId,\r\n        uint _quantity\r\n    )\r\n    public payable //for dealer\r\n    {\r\n        //&& _cropId >0 && _quantity >0 \r\n        require ( dealers[msg.sender].isRegistered == true , \"You are not dealer or not registered\" );\r\n        require (_cropId <= cropCounter , \"enter valid crop id\");\r\n        require(msg.value == ((crops[_cropId].cropPrice)* 1000000 wei)* _quantity, \"Please send exact amount\" );\r\n        require((crops[_cropId].farmer_quantity)>=_quantity,\"crop in this quantity is not available\");\r\n        //creating dealers crop instance    \r\n        DCrop memory dcrop;\r\n        dCropCounter++;\r\n        dcrop.cropId=dCropCounter;\r\n        dcrop.farmerCropId= _cropId;//////////////////////////////////////new add\r\n        //dcrop.cropType = crops[_cropId].cropType;//adding crop type to cropType\r\n        dcrop.farmer_quantity = (crops[_cropId].farmer_quantity)-(_quantity);//_fQuantity;\r\n        dcrop.cropName = crops[_cropId].cropName;\r\n        dcrop.dealer_quantity = _quantity;\r\n        dcrop.location = crops[_cropId].location;//_loc;\r\n        dcrop.farmerAddrs = crops[_cropId].farmerAddrs; //_fAddrs;\r\n        dcrop.dealerAddrs = payable(msg.sender);\r\n        dcrop.dealerName = dealers[msg.sender].dealerName;\r\n        //dcrop.isAdded = true;\r\n        dcrop.cropPrice = ((((crops[_cropId].cropPrice)) * dealerProfitPercent)/ 100)+crops[_cropId].cropPrice;\r\n        //modifying farmer's crop ( decreasing farmer's qnt)\r\n        crops [_cropId].farmer_quantity = ( crops[_cropId].farmer_quantity ) - ( _quantity ); //newFarmerQuantity;//changing new farmer qnt\r\n                \r\n        crops[_cropId].farmerAddrs.transfer( ((crops[_cropId].cropPrice)* 1000000 wei)* _quantity );// transferrina money to farmer for his crops\r\n        dcrops[dCropCounter] = dcrop;// adding dealer's crop to mapping\r\n        //emit boughtFromFarmer( dcrops[dCropCounter]);\r\n    }\r\n   \r\n    function dealerSetPriceOfCropExpl //for competetion between dealers\r\n    (\r\n        uint _cropId,\r\n        uint _newPrice\r\n    )\r\n    public\r\n    {\r\n        require ( _cropId <=dCropCounter,\"Enter valid number\");\r\n        require ( dealers[msg.sender].isRegistered == true, \"You are not registred\");\r\n        require ( _newPrice <= ((((crops[ dcrops[_cropId ].farmerCropId].cropPrice)  * dealerProfitPercent )/100 ) + (crops[ dcrops[_cropId ].farmerCropId].cropPrice)), \"Not allowedto set price higher than gov price\" );\r\n        dcrops[_cropId].cropPrice =_newPrice;\r\n       // emit newPriceSetByDealer(_newPrice);\r\n    }\r\n\r\n//functions for subdealer\r\n    function registerSubdealer\r\n    (\r\n        string memory _subdealerName,\r\n        string memory _phoneNumber,\r\n        string memory _email\r\n    )\r\n    public\r\n    {\r\n        require ( msg.sender!= owner ,\"owner cant be subdealer\" );\r\n        // require ( subdealers[msg.sender].isRegistered == false, \"You are already registered\");\r\n        require (farmers[msg.sender].isRegistered == false && dealers[msg.sender].isRegistered == false &&  subdealers[msg.sender].isRegistered == false, \"You are already registred\");\r\n        // require (dealers[msg.sender].isRegistered == false, \"You are already dealer\");\r\n        subdealerCounter++;\r\n        SubDealer memory subdealer = SubDealer (subdealerCounter,_subdealerName,_phoneNumber, _email,msg.sender, true );\r\n        subdealers [msg.sender]=subdealer;\r\n        //emit subdealerRegistered( _subdealerName,_phoneNumber,_email );\r\n    }\r\n\r\n    function seeCropsAtDealer \r\n    (uint _cropId)\r\n    public view returns(DCrop memory ) //for subdealer\r\n    {\r\n        require (  _cropId <= dCropCounter,\"Enter valid crop id\");\r\n        return dcrops[_cropId];\r\n    }\r\n\r\n    function buyFromDealer\r\n    (\r\n        uint _cropId,\r\n        uint _quantity\r\n    )\r\n    public payable //for subdealer\r\n    {\r\n        //&& _cropId >0 && _quantity >0\r\n        require ( subdealers[msg.sender].isRegistered == true , \"You are not registered or you are not subdealer\" );\r\n        require (_cropId <= dCropCounter ,\"Enter valid numbers\");\r\n        require(msg.value == ((dcrops[_cropId].cropPrice)* 1000000 wei)* _quantity, \"Please send exact amount\" );\r\n        require((dcrops[_cropId].dealer_quantity) >= _quantity,\"crop in this quantity is not available\");\r\n        //creating subdealers crop instance    \r\n        SDCrop memory sdcrop;\r\n        sdCropCounter++;\r\n        sdcrop.cropId = sdCropCounter;\r\n        sdcrop.farmerCropId = dcrops[_cropId].farmerCropId;///////////////////////new add\r\n        sdcrop.dealerCropId = _cropId;\r\n        //adding crop type to cropType\r\n        //sdcrop.cropType = dcrops [_cropId].cropType;\r\n        sdcrop.farmer_quantity = dcrops[_cropId].farmer_quantity;\r\n        sdcrop.dealer_quantity = (dcrops[_cropId].dealer_quantity) - ( _quantity);\r\n        sdcrop.subdealer_quantity = _quantity;\r\n        sdcrop.cropName = dcrops[_cropId].cropName;\r\n        sdcrop.location = dcrops[_cropId].location;\r\n        sdcrop.farmerAddrs = dcrops[_cropId].farmerAddrs;\r\n        sdcrop.dealerAddrs = dcrops[_cropId].dealerAddrs;\r\n        sdcrop.subdealerAddrs = payable(msg.sender);\r\n        sdcrop.subdealerName = subdealers[msg.sender].subdealerName;\r\n        //sdcrop.isAdded = true;\r\n        sdcrop.cropPrice = (((dcrops[_cropId].cropPrice)* subdealerProfitPercent)/ 100 ) + dcrops[_cropId].cropPrice;\r\n        //modifying dealer's crop ( decreasing farmer's qnt)\r\n        dcrops [_cropId].dealer_quantity = ( dcrops[_cropId].dealer_quantity ) - ( _quantity );//changing new dealer qnt\r\n        \r\n        dcrops[_cropId].dealerAddrs.transfer( ((dcrops[_cropId].cropPrice) * 1000000 wei)* _quantity );// transferrina money to dealer for his crops\r\n        sdcrops[sdCropCounter] = sdcrop;// adding subdealer's crop to mapping\r\n        //emit boughtFromDealer( sdcrops[sdCropCounter]);\r\n    }\r\n   \r\n    function subdealerSetPriceOfCropExpl\r\n    (\r\n        uint _cropId,\r\n        uint _newPrice\r\n    )\r\n    public\r\n    {\r\n        require (_cropId <= sdCropCounter ,\"This crop id doesn't exist\");\r\n        require ( subdealers[msg.sender].isRegistered == true, \"You are not registred\");\r\n        require ( _newPrice <= ((((dcrops[ sdcrops[_cropId].dealerCropId ].cropPrice)  * subdealerProfitPercent)/100) + (dcrops[  sdcrops[_cropId].dealerCropId  ].cropPrice)), \"Setting price higher than gov norms are not allowed\" );\r\n        sdcrops[_cropId].cropPrice =_newPrice;\r\n    }\r\n   \r\n//functions for customer\r\n    function seeCropsAtSubdealer \r\n    (    uint _cropId ) \r\n    public view returns ( SDCrop memory )//SDCrop memory)\r\n    {  \r\n        require ( _cropId <= sdCropCounter  ,\"Enter valid crop Id/No crops available yet\");\r\n        return sdcrops[_cropId];\r\n    }\r\n\r\n\r\n    function buyCrop\r\n    (\r\n        uint _cropId,\r\n        uint _quantity\r\n    )\r\n    public payable//for customer\r\n    {\r\n        require( dealers[msg.sender].isRegistered == false  && subdealers[msg.sender].isRegistered == false , \"Dealer and subdealer not allowed to buy crop from subdealer\" );\r\n        require( subdealers[msg.sender].isRegistered == false, \"Subdealer can't buy crop from subdealer\" );\r\n        require ( _cropId <= sdCropCounter && _cropId >0 && sdCropCounter >0,\"Enter valid crop Id/crops not available\");\r\n        require(msg.value == ((sdcrops[_cropId].cropPrice)* 1000000 wei)* _quantity, \"Please send exact amount\" );\r\n        //require ( subdealers[msg.sender].addrs != msg.sender , \"You cant buy your own crops\");//can remove this condition\r\n        require( sdcrops[_cropId].subdealer_quantity >= _quantity ,\"This much quantity not available at subdealer\");\r\n        uint newSubdealerQuantity = (sdcrops[_cropId].subdealer_quantity) - _quantity;\r\n        sdcrops[_cropId].subdealer_quantity = newSubdealerQuantity;\r\n        \r\n        sdcrops[_cropId].subdealerAddrs.transfer(((sdcrops[_cropId].cropPrice) * 1000000 wei)*_quantity);\r\n        //emit boughtFromSubdealer(_cropId);\r\n    }\r\n\r\n    function getPriceForQuantityInWei\r\n    (uint _cropId, uint _quantity)\r\n    public view returns(uint _quote)\r\n    {\r\n        if(dealers[msg.sender].isRegistered == true)\r\n        {\r\n            require(cropCounter>0,\"No crops to calculate\");\r\n            return (((crops[_cropId].cropPrice) * 1000000 wei) * _quantity);\r\n            }\r\n        else if (subdealers[msg.sender].isRegistered == true)\r\n        {\r\n            require(dCropCounter>0,\"No crops to calculate\");\r\n            return (((dcrops[_cropId].cropPrice) * 1000000 wei) * _quantity);}\r\n        \r\n        else {\r\n            require(sdCropCounter>0,\"No crops to calculate\");\r\n            return ((( sdcrops[_cropId].cropPrice) * 1000000 wei) * _quantity);}\r\n        \r\n    }\r\n\r\n}\r\n\r\n",
  "sourcePath": "C:/Users/swapn/Blockchain/AgriBlock_3.0/contracts/AgriBlock.sol",
  "compiler": {
    "name": "solc",
    "version": "0.8.0+commit.c7dfd78e.Emscripten.clang"
  },
  "schemaVersion": "3.3.4",
  "updatedAt": "2021-03-28T19:51:36.570Z",
  "networkType": "ethereum",
  "devdoc": {
    "kind": "dev",
    "methods": {},
    "version": 1
  },
  "userdoc": {
    "kind": "user",
    "methods": {},
    "version": 1
  }
}